:020000041000EA
:1000000000200008EB0000100D0000004D01001062
:1000100000000000000000000000000000000000E0
:100020000000000000000000000000004901001076
:10003000000000000000000049010010490100100C
:100040004901001049010010490100104901001048
:100050004901001049010010490100104901001038
:100060004901001049010010490100104901001028
:100070004901001049010010490100104901001018
:1000800010B5064C2378002B07D1054B002B02D06E
:10009000044800E000BF0123237010BDB003000836
:1000A0000000000014150010044B10B5002B03D005
:1000B0000349044800E000BF10BDC0460000000036
:1000C000B4030008141500100230800803D001307A
:1000D0000238FCD1C046C0467047EFF3108072B6BC
:1000E000704780F3108870477047FFF7FDFF72B6C6
:1000F0000F4C104DAC4209DA21686268A368043BDA
:1001000002DBC858D050FAE70C34F3E70A490B4A2F
:100110000020521A02DD043A8850FCDC08480949E4
:100120000860BFF34F8F00F0EDFE00F09BFEFEE78E
:100130002015001038150010B0030008C80500088D
:100140000000000808ED00E0FEE7FEE700B504202F
:100150007146084202D0EFF3098002E0EFF3088015
:10016000043000F091FCFEE7014B18607047C04678
:10017000CC030008044B1B681A00BA3212881B6AB1
:100180005043C0187047C046CC030008A02300B5F8
:100190001B06984226D015D8802825D00AD81028CA
:1001A00024D0402824D000280BD0154809E0A420F2
:1001B000C00306E08022134B520090421CD09842AC
:1001C000F3D100BD104B984218D0104BC018042832
:1001D000EBD800F035FFECEA0F0305000C48F0E720
:1001E0000C48EEE70020ECE70B48EAE70B48E8E7AD
:1001F0000B48E6E70B48E4E71800E2E7A020D7E762
:10020000FF00520006005200090000A0FFFFFF0F90
:10021000020052000300520005005200010050008D
:10022000020050000100520010B50020FFF7A2FFAD
:100230000A4B1C682300BC331B68C0180368002BE2
:100240000ADB074B1868FFF7A1FF012263689A6079
:100250009A68002AFCD110BD0248FCE7CC030008D4
:10026000D003000802005000064B1B68BC331B681B
:10027000C3181B68002B03DA89B241600020704765
:100280000148FCE7CC03000801008A000368002B4A
:1002900004DA89B2C2608160002070470048FCE740
:1002A00001008A00064B1B68BC331B68C3181B681F
:1002B000002B03DAC36800200B6070470148FCE79D
:1002C000CC03000801008A00024B1A68002A00D102
:1002D00018607047E4030008F0B52C244443154827
:1002E0001F0000681E0A0019FF2426402740124CF8
:1002F0001B0C256807602C6A46608360BA352D8820
:100300006F433F190761370080377F01E7190B4DB5
:1003100076014761A4191F043B436419236000233D
:100320008361059BC2610162002B01D01B88838120
:10033000F0BDC046E4030008CC030008081000002C
:10034000F0B5836885B002AD2B800368066A173369
:100350006B804368476A0095826AC16A0400039310
:100360000369C068FFF7B8FF00213B000A003000B6
:100370000091FFF7B1FF2800216B00F039FB00224C
:10038000AB5E002B06DB1F2213401E3A9A4013007F
:10039000014A136005B0F0BD00E100E0F7B52C267E
:1003A000134C70434E43246801932518A4192E69F9
:1003B000002E19D0A069002818D13168002915DA5B
:1003C00001216F680D0063689D40AC4613689DB2C3
:1003D00063461B041D431560F260A161B940019B97
:1003E00089B26362B160FEBD0248FCE70248FAE7E9
:1003F000E403000804028A0007028A0073B500269D
:1004000042690400D56801962B0CB34221D01B042D
:1004100013601368194B00691B68BC331B68C31851
:100420001B68B34215DA01A9FFF73CFFB0420CD1BB
:100430000198E26903681E0CDBB29A4205D9226A70
:100440009B009B58002B00D0984731002069FFF794
:100450000BFFADB2002D09D063691D6000251B683C
:10046000636AAB4205D098476562A56163691B6802
:1004700073BDA36A002BF8D09847F6E7CC030008B9
:100480002C2310B54343034A1068C018FFF7B6FF8A
:1004900010BDC046E40300081A4B70B51A680C0082
:1004A000130033331B7883422AD9002928D00D68E2
:1004B0001F212B000B400D4222D11100BA310988B7
:1004C000126A48431900104D8018286022685209AA
:1004D000934210D30021FFF7C7FE002122002868B5
:1004E000FFF7D4FE011E04D12868FFF7BDFE0028E7
:1004F00000D0064870BD66689A0091510133E5E767
:100500000348F7E7CC030008E803000801018A006C
:1005100003018A0010B504000800002A0CD100294C
:1005200013D10B4B1A681300BA331B88126A63434A
:100530009B18084A136010BD002906D006490860C0
:1005400020004A60FFF7A8FFF5E70448F3E7C0463C
:10055000CC030008E80300087803000803018A00C0
:10056000F7B5184F04003B680191DE683368834299
:1005700026D90025A94202D1FFF7AFFD0500386852
:100580000368002B1ADA1F220123224093406409DA
:100590007268A4001419226813420DD09A43226095
:1005A00000240021FFF760FE019B002B02D12800F0
:1005B000FFF797FD2000FEBD034CF2E7034CF3E785
:1005C000034CF7E7E80300080201880003018800F4
:1005D00004018A000A4B1B68DB681A6882420DD945
:1005E00059681F23420918401E3B8340920050580F
:1005F0001840431E9841034BC01870470248FCE75F
:10060000E80300080001880004018A00054B1B680C
:100610001A0088321B6812689B181868000AC0B25A
:100620007047C046CC030008044B1B681A00883290
:100630001B6812689B181868000E7047CC030008EE
:10064000034BE0308000C0588006800F7047C046E2
:1006500000002640024B18694007C00F7047C04693
:1006600000002740A6220549D2008B580220DB4318
:100670009B0702D00123885818407047000026408D
:1006800010B5FFF7EFFF0023022801D1014B1B68D3
:10069000180010BDF0030008094A83009B18D022FF
:1006A0009200985807221040042807D1C0229200D7
:1006B00098581F2303408020400018437047C046CD
:1006C0000000264010B5FFF7E7FF88235B00984243
:1006D0001AD009D8012811D0022812D0434258411B
:1006E000114B4042184010BD1223FF33984213D0E3
:1006F0001423FF33984214D00020F4E70B4B186802
:10070000F1E7FFF7BDFFEEE7094A0A4BD358002B8C
:10071000F2DA80200002E6E7FFF79CFF0028EBD02A
:10072000F7E7034A044BF1E700127A00EC030008F4
:10073000000026400C0500003C050000B023154ACF
:10074000DB00D35810B59903DB01DB0F890BC371B4
:10075000114B0160D3580F24D904DB01DB0D038159
:10076000B123DB00D358C90C81801900214081726C
:1007700019092140C172D9029B009B0F8373074B5B
:10078000C90CD35881815A05DB01520FDB0D8271F0
:10079000038210BD00002640840500008C05000087
:1007A0008030034BFF308000C058C00F7047C046F8
:1007B0000000264010B5104B421E1B683F331B78CB
:1007C000934216D97F221F2480300C4BFF308000CB
:1007D000C3581A400A701A0C2240180A8A701A016B
:1007E0002040E240487000209B009B0FCA700B71B4
:1007F00010BD0348FCE7C046CC03000800002640BB
:1008000001004A00F0B589B003AC2000FFF796FF65
:10081000B0231A4ADB00D25800239A4203DAA37BA2
:10082000023B5A1E9341E57900266A1E9541013527
:10083000B34220D0A488B4421DD03000039FFFF7FC
:1008400041FF2A00330031000190200000F0AEFC8F
:100850000C00050033003A003100019800F0A6FCBE
:10086000E6076A0832436308801859412A002300CA
:1008700000F07CFC0600300009B0F0BD000026400E
:10088000F7B5234B06001B683F331B78002B08D0BD
:1008900000283BD0834204D36946FFF78BFF041E38
:1008A00001D0002632E03000FFF77AFF2300002855
:1008B00005D06B461C79023C23005A1E93416A46C0
:1008C0005478002BEDD0002CEBD09578002DE8D09B
:1008D00030001778FFF7F6FE002306002A002000FC
:1008E000190000F063FC00230C0005003A00300002
:1008F000190000F05BFCE6076A08324363088018C1
:1009000059412A00230000F031FC06003000FEBDF2
:10091000CC03000810B5041E04D1FFF773FF0028B4
:1009200006D008E0064B1B683F331B78834203D296
:100930002000FFF7C7FE10BDFFF7A2FFEFE7C0469C
:10094000CC03000870B50500FFF77AFEE035074BD1
:10095000AD000400E8580F231840FFF7DBFF012328
:10096000A3405B081818E04070BDC0460000264058
:10097000144B30B51C6823002C331A7807231F2A28
:1009800015D8820815009D432B1E0FD10333184044
:10099000984081402368920020339B180A00FF2171
:1009A00081401C68624011406140196030BD1840B0
:1009B00080231B06184380239B012268C9188900E5
:1009C0008850F3E7CC030008064B10B59A68064C34
:1009D00010308300A24202D19858995010BD034AAA
:1009E000D058FBE700ED00E0000000080000001018
:1009F000F8B506000D0000283AD00023C05E00289C
:100A000028DB7188FFF7B4FF0024FF2203279446F8
:100A10000023F05E71680740FF006646BA40890116
:100A20003140D243B94083B2002815DB114E830810
:100A30009B009B19C026B6009F593A40114399511B
:100A40000D4B9A680D4B9A4202D12900FFF7BCFF6B
:100A50002000F8BD0A4CD8E70F263340083B064E6D
:100A60009B089B009B19DE6932401143D961E7E77F
:100A7000034CEDE700E100E000ED00E000000008BD
:100A800001005600FEE7000002680A4B10B51A602C
:100A900042685A6082689A60C268DA6002691A61C4
:100AA00042695A6182699A61C269DA61FFF7EAFFB5
:100AB00010BDC04690030008B0235B055A78212082
:100AC000002A01D05878C0B27047B0235B059A89DC
:100AD000002A02D0988980B2704780204000FBE74E
:100AE0007FB5274B86000D00F458042901D0012959
:100AF00027D100200FE0A3682B420BD1E368290027
:100B00001A685B6802920193039302A823689847CE
:100B10001C4B1C606469002C0BD01B4B9842EAD123
:100B2000012DE8D1174B18481A68184B9A5104B098
:100B300070BD012DFBD1144B9842F3D0134B9C5147
:100B4000F5E7022915D026006469002CFBD10020AE
:100B5000002EECD0B3682B4209D1F36829001A6843
:100B60005B6802920193039302A833689847366941
:100B7000EEE7044B1B68181ED9D01E69E7E7C04694
:100B80003404000830040008FF0042001C04000880
:100B90001A4B1B68190088311A68096851180968CE
:100BA000016219008C3109685218126842621A00F9
:100BB00046321278002A1FD09A68E0321268D206B4
:100BC0001AD5F222DB68D2019A580260F022D201D3
:100BD0009A5842600A4A9A5882600A4A9A58C260F1
:100BE000094A9A580261094A9A584261084A9A5831
:100BF0008261084A9B58C3617047C046CC03000815
:100C000004780000087800000C78000010780000DC
:100C100014780000187800001A4B1B681A008832FC
:100C2000196812688A18016A11601A008C321968F2
:100C300012688A18416A11601A0046321278002A36
:100C40001ED09A68E0321268D20619D5F0224168A7
:100C5000DB68D201995081680B4A9950C1680B4AF0
:100C6000995001690A4A995041690A4A9950816923
:100C7000094A9950C169094A99500168E832995066
:100C80007047C046CC0300080478000008780000D4
:100C90000C7800001078000014780000187800002C
:100CA000F7B50700FFF708FF5D4D06006B68002BE6
:100CB00000D07DE0FFF711FA6B680090002B00D0A8
:100CC00089E0584C22681300BA33198807234B4334
:100CD000126A9B181A68002AFCDADB68DA0021D550
:100CE0001B0F1B0750480193FFF752FF20684F4925
:100CF000030088331C6803681C1923680B40212EED
:100D000000D06DE0902212011343236003008C3366
:100D100000681B68C318186801400A431A60424BF8
:100D2000019A134380223F4E9205316813430A0013
:100D3000BA321088072200244243096A5218D3604D
:100D400054605368FFF7C1FE80235B0098424AD18C
:100D5000380000F05DFB32681300BA3319880723AE
:100D60004B43126A9B181A68002AFCDADF68FB0002
:100D700003D538010009FFF74FFF2D4B32681F40A4
:100D80001300BA33198807234B43126A00989B1843
:100D90000022DF605A60FFF7A4F9002C0FD16B68C6
:100DA000002B03D008210120FFF79AFE2000FEBD92
:100DB00001210800FFF794FE041E00D17AE76B685A
:100DC000002B03D002210120FFF78AFE194B9C4221
:100DD000ECD0194CEAE704210120FFF781FE70E70F
:100DE0008022520090E733681A00BC32196A1268F8
:100DF00052181168002910DBBA331B889A1813683F
:100E0000002B0ADB04230D4A11690B431361012FE8
:100E100001D030BF9FE720BF9DE7064C9BE7C0464F
:100E200034040008CC030008F4030008FF00FFFFAF
:100E3000FFFFFFDF05004200FF00420000ED00E081
:100E4000C0228020064952008B58C0059B009B0899
:100E500003438B50802388581B0603438B507047F5
:100E60000000264010B562B6034800F0C3F8002029
:100E7000FFF716FFFBE7C0460020001010B500206A
:100E8000FFF7FEFA10BD704710B50020FFF75AFDBE
:100E9000041E28D0144B1860FFF7C6FB411C20002D
:100EA00000F0D8F8114B04001860FFF7AFFB411CAD
:100EB000200000F0CFF804000D4B013C18600D49F4
:100EC000200000F0C7F8FA210B4B013018708900A0
:100ED000200000F0BFF8094B013018600020FFF738
:100EE00031FD074B186010BD880000088C00000819
:100EF0008000000840420F009400000890000008A5
:100F00008400000810B52048FFF72EF9B022E02138
:100F100030201E4CD200A35889005B005B08A35010
:100F200063588343635080235B04A350184B194AD2
:100F3000E250A02204339201E250FF22164BE2500D
:100F4000FFF77EFFC02201215200A3588B43A3501C
:100F5000FFF799FFFFF798FF104B03201A68130063
:100F6000BA33198807234B43126A80219B18002249
:100F7000DA605A600A4AFFF7CDFA0A48FFF7A4F987
:100F80000948FFF7DDF910BD2014001000002640CD
:100F900084050000010002008C050000CC0300085D
:100FA0008003000848040008E01400109023034A5E
:100FB0005B01D058032318407047C0460000204012
:100FC00010B59024FFF789F8074B64011A590749B7
:100FD0001140074A0A431A51102259681142FCD0A5
:100FE000FFF77FF810BDC04600002040FCFF000066
:100FF0000100FA05F8B590260E4C76010700FFF7C0
:101000006CF8A3590500DB439B0701D1FFF7D8FF1C
:1010100080239B00E750A359074A1A40074B13430C
:10102000A351102362681A42FCD02800FFF759F838
:10103000F8BDC04600002040FCFF00000300FA0598
:1010400002B4714649084900095649008E4402BC61
:101050007047C046002243088B4274D303098B4279
:101060005FD3030A8B4244D3030B8B4228D3030C78
:101070008B420DD3FF22090212BA030C8B4202D31A
:101080001212090265D0030B8B4219D300E0090A42
:10109000C30B8B4201D3CB03C01A5241830B8B424B
:1010A00001D38B03C01A5241430B8B4201D34B0334
:1010B000C01A5241030B8B4201D30B03C01A524199
:1010C000C30A8B4201D3CB02C01A5241830A8B421E
:1010D00001D38B02C01A5241430A8B4201D34B0207
:1010E000C01A5241030A8B4201D30B02C01A52416B
:1010F000CDD2C3098B4201D3CB01C01A524183091F
:101100008B4201D38B01C01A524143098B4201D358
:101110004B01C01A524103098B4201D30B01C01A83
:101120005241C3088B4201D3CB00C01A52418308FD
:101130008B4201D38B00C01A524143088B4201D32A
:101140004B00C01A5241411A00D20146524110468A
:101150007047FFE701B5002000F006F802BDC04669
:101160000029F7D076E770477047C046002B11D1B1
:10117000002A0FD1002900D1002802D00021C94344
:10118000080007B4024802A14018029003BDC046FF
:10119000D9FFFFFF03B4684601B5029800F034F8A8
:1011A000019B9E4602B00CBC7047C046F0B5CE46CF
:1011B000474680B5070099463B0C9C4613041B0C20
:1011C0001D000E0061460004140C000C45434B4307
:1011D00060436143C0182C0C20188C46834203D90D
:1011E00080235B029846C444494679437243030C0A
:1011F00063442D042D0CC918000440198918C0BC83
:10120000B946B046F0BDC046F0B557464E464546D5
:10121000DE46E0B504000D009246994683B08B424D
:1012200030D82DD04946504600F0D8F829000600A5
:10123000200000F0D3F8331A9846203B9B4633D465
:101240005A465346934042461F00534693401E0061
:10125000AF423AD8AF4200D178E05B46A41BBD4113
:10126000002B00DA75E00022002300920193012395
:101270005A4693400193012342469340009328E04D
:101280008242CFD900220023009201930C9B002BB5
:1012900001D01C605D600098019903B0F0BCBB46B2
:1012A000B246A946A046F0BD424620239B1A5246AC
:1012B000DA40414613004A468A40170042461F431F
:1012C000534693401E00AF42C4D90022002300922F
:1012D00001934346002BD9D0FB0772081A434646B8
:1012E0007B080EE0AB4201D1A2420CD8A41A9D416A
:1012F000012024196D410021013E24184D41002E8A
:1013000006D0AB42EED9013E24196D41002EF8D132
:10131000009801995B4600196941002B24DB2B00E2
:101320005A464446D3402A00E2401C005B46150062
:10133000002B2ADB26009E40330026004746BE4095
:101340003200801A9941009001919FE7A342BCD8D6
:1013500083E74246202300219B1A0022009101923C
:101360000122DA40019286E7424620239B1A2A0096
:1013700046469A402300F340444613432A00E24085
:101380001C005B461500002BD4DA42462F002023B8
:10139000260097409B1ADE403B003343CDE7C04612
:1013A0001C2101231B04984201D3000C10391B0A95
:1013B000984201D3000A08391B09984201D3000959
:1013C000043902A2105C40187047C04604030202B0
:1013D00001010101000000000000000010B500291B
:1013E00003D1FFF7DDFF203002E00800FFF7D8FF50
:1013F00010BDC046F8B5C046F8BC08BC9E46704754
:10140000F8B5C046F8BC08BC9E4670470000000016
:1014100001B40248844601BC604700BF6102000875
:1014200000002040000024400000004000000000B8
:1014300000002340000030400000314000009F4089
:10144000000022400000104000009D40202020208D
:1014500020101010101D1D8017007500FF030602DC
:1014600006003604102000007FC0000000040000C9
:10147000000000000019324B647D00000000008075
:101480004000080B100000000000FF012002001FB8
:1014900000800004FF081018001000140018001C41
:1014A0004044484C500000000810000008000000B4
:1014B00004000000041000000012000004210000DD
:1014C000002100000016000040114002C413001368
:1014D0008013A01340138813A81320001C000000E1
:1014E00003000000010000000100000000000000F7
:1014F000050360000400000001000000000000007F
:10150000010000000604600008000000A8050008B3
:101510007D0E001000000000F0FCFF7F01000000C5
:1015200000000010000000088000000040150010BE
:1015300080000008F8020000B00300081802000054
:1015400000093D0000093D0000127A0000093D003D
:10155000A00F000004000000A9000010810000108E
:1015600080B230B5C400002820D0114B0722186883
:101570000300BA331B885343026A9A181168002982
:10158000FCDA3E210B4A062511600B4A0B4911601B
:10159000A3210B4AC90055500A495450006A5458B7
:1015A0001B18002058605358002BFCDA30BDC04691
:1015B000CC03000804012640080126401E1F00003D
:1015C000000026401C05000010B54378FF2B11D108
:1015D00000F0FAF80400032000F00EF90121C368BE
:1015E0005B681A680A431A601A680A42FCD1200034
:1015F00000F01AF910BDF7B507000020019100F0C6
:10160000FBF83E4C050023681A005033BC321668C4
:101610001B788619002B59D000F0F6F800900328AB
:101620001AD000F0D1F8364A364B0400D358002BBC
:101630003CDA01212800344A00F0D6F8002835D1E0
:101640000198FFF78DFF002F3ED03368002BFCDBA5
:1016500000F0B2F805002AE0062000F0CDF823687B
:10166000BC331B68C0180368002B02DA274D280022
:10167000FEBD002000F0B0F8254B9842F6D00023C4
:10168000244A19000120126800F0C6F8041EEDD1AA
:10169000002000F0A1F81E4A1F4B904203D09C424C
:1016A000E4D00134F4E79C42BBD1DFE7174D009B47
:1016B000032B05D10121002000F076F80028F9D194
:1016C000200000F0B1F8D2E7144DF0E700F07CF80C
:1016D000012104000C4A280000F086F8002808D1F7
:1016E000002F08D03368002BFCDB00F065F8050004
:1016F000E6E7064DE4E7094DE2E7C046CC03000803
:10170000000026401C050000D00300080500520020
:1017100001018800E0030008F049020001005000C8
:10172000184BF7B51B6818495A6804230C69234302
:101730000B61012824D030BF1300FC331B69002B40
:101740001DD1A324114B12481249E40007681E5909
:101750000D680195104D056006251D513E240C6055
:101760000E4C3E351D511D59002DFCDA0C4CFC323F
:101770001461A322D20007609E50019B0B60F7BD4D
:1017800020BFD9E7CC03000800ED00E000002640B0
:1017900008012640040126401E1F00001C05000011
:1017A000AAAAAAAA0000000001B40248844601BC0B
:1017B000604700BF6105001001B40248844601BCC7
:1017C000604700BF2902001001B40248844601BCF2
:1017D000604700BFDB00001001B40248844601BC32
:1017E000604700BFD505001001B40248844601BC23
:1017F000604700BF8D02001001B40248844601BC5E
:10180000604700BF7501001001B40248844601BC66
:10181000604700BFAD0F001001B40248844601BC10
:10182000604700BF9D03001001B40248844601BC1C
:10183000604700BFE300001000000000000000004F
:101840000000000000000000000000000000000098
:1020000000F80F08252300100D0000009923001090
:10201000992300109923001099230010000000005C
:10202000000000000000000000000000B1BE001031
:10203000952300100000000051BF001051BE001099
:102040009523001095230010952300109523001070
:102050009523001095230010952300109523001060
:102060009523001095230010952300109523001050
:102070009523001095230010952300109523001040
:1022E00010B5054C237833B9044B13B10448AFF350
:1022F00000800123237010BDC02D000800000000E5
:10230000DCD90E1008B5034B1BB103490348AFF3EA
:10231000008008BD00000000C42D0008DCD90E10AC
:1023200070477047FFF7FCFF72B6144C144DAC4277
:1023300009DA21686268A368043BA2BFC858D0507C
:10234000FAE70C34F3E70F490F4A00209142BCBF73
:1023500041F8040BFAE70D480D490860BFF34F8FB1
:1023600000F084F800F068F808F047FF64F0FEFA27
:1023700001F0EEFD64F0B4FAFEE70000E8D90E10BB
:1023800000DA0E10C02D0008E01601080020000839
:1023900008ED00E0FEE7FEE700B5042071460842C4
:1023A00002D0EFF3098002E0EFF30880043051F02F
:1023B000BBFAFEE708B5012049F05EFD08BD704795
:1023C00010B5002051F05CF900B910BD0446124B65
:1023D000186050F0B1F80130B4FBF0F00F4B18600A
:1023E00050F0C2F80130B4FBF0F40D4B1C60013C1E
:1023F0000C4BA3FB04239B0C01330B4A13700B4BB8
:10240000A3FB0434A4090134094B1C60002051F0E3
:1024100037F9084B1860D8E7E8220008EC220008DA
:10242000E022000883DE1B43F4220008D34D621033
:10243000F0220008E422000808B5094847F06AFEC7
:10244000FFF7BDFFFFF7BCFF00221146032049F054
:102450006FFD044849F0CAFB034849F01FFC08BD62
:1024600004CE0710DC2D000890CA0610EFF310818F
:1024700072B6074AD2F8883043F47003C2F8883045
:10248000BFF34F8FBFF36F8F81F31088704700BF8A
:1024900000ED00E008B500F0DBF800F00FF800F008
:1024A000CDF800F047F800F04DF808BD08B500F091
:1024B000CDF900F02DF800F06FF808BD08B50F2138
:1024C00001204FF0C5FE00220F2101204FF034FD06
:1024D0000F2101204FF07AFE002108464FF0B8FE90
:1024E0000022114610464FF027FD002108464FF00C
:1024F0006DFE072100204FF0ABFE002207211046A1
:102500004FF01AFD072100204FF060FE08BD0000CB
:1025100008B5054841F0BAFD044841F0B7FD04484C
:1025200041F0B4FD08BD00BF50CD061048CD0610E7
:102530004CCD061008B5002211462F204FF00AFEA0
:1025400008BD000010B50E4C0E4A0021204649F08F
:1025500053FA0D4A0121204649F04EFA04F5407421
:102560000A4A0421204649F047FA094A0621204632
:1025700049F042FA074A0721204649F03DFA10BDCA
:102580000000314028CE061060CE0610F0CD0610B7
:10259000B8CD061080CD061008B5184841F076FD7C
:1025A000174841F073FD174841F070FD164841F09F
:1025B0006DFD164841F06AFD154841F067FD15486C
:1025C00041F064FD144841F061FD144841F05EFDA6
:1025D000134841F05BFD134841F058FD124841F0AB
:1025E00055FD124841F052FD114841F04FFD114890
:1025F00041F04CFD104841F049FD08BD5CCE06108D
:1026000094CE061068CD061024CE0610ECCD061030
:10261000B4CD061054CD061058CD06105CCD061072
:1026200060CD061064CD06106CCD061070CD06107E
:1026300074CD061078CD06107CCD0610024B3322E7
:102640009A601A61704700BF00203040FEE700002A
:1026500030B583B00722002132204FF07BFD962158
:10266000002051F0B3F951F043F9C0B96F4BD3F8E2
:10267000004F04F03F0451F02BF930B1012051F02C
:102680001DF96B4B9B6C002B26DB684BC3F8004F8E
:1026900050F060F850F04CF8012050F06FF8012035
:1026A00051F0EAFE51F090FE51F06AFF51F054FFF4
:1026B00050F092F9002108464FF0DAFF00204FF069
:1026C00045FF01204FF02AFF00204FF03DFE594BFF
:1026D0001B6893F83F4006E00620FFF7B7FF20464F
:1026E00050F064FC013C002CF9D10021012050F095
:1026F000BFF800204FF0AAFF00287BD00021084639
:1027000050F0B6F8002108464FF080FF4A4D0024F3
:102710000094234622462146284649F04FF800946B
:10272000234622460121284649F048F843484FF005
:10273000D9FF00286AD101204FF0D8FE00204FF0C9
:1027400005FF00204FF0EAFE00204FF0FDFD0021C4
:10275000012050F08DF80021084650F089F8002142
:10276000022050F085F80021032050F081F800216C
:10277000042050F07DF80021052050F079F8304811
:1027800050F044F9002844D12E4850F09DFB002819
:1027900042D1002108464FF039FF002108464FF092
:1027A00067FF2949012050F027FCC0BB42F210719D
:1027B000012050F049FDA8BB4FF08EFE00204FF0E5
:1027C00045FE00204FF062FE4FF074FE00210846E7
:1027D00051F036FF01204FF021FE4FF0A9FF0120FC
:1027E0004FF0CCFF6421002051F0F0F8FFF7E8FD36
:1027F00003B030BD50F06AF840F2111398427FF4F4
:102800007DAF012100204FF001FF77E70520FFF7A2
:102810001DFF0420FFF71AFF0420FFF717FF032016
:10282000FFF714FF0320FFF711FF00BF00F0274060
:1028300000002740280C01080000314040420F00F2
:1028400098CE0610400D0300C4CE061008B5094806
:1028500041F01CFC084841F019FC084841F016FC06
:10286000074841F013FC074841F010FC064841F0CE
:102870000DFC08BDACCE0610B0CE0610B4CE0610CE
:10288000B8CE0610BCCE0610C0CE061008B504485F
:1028900051F01EFA08B1002008BD0248FCE700BF55
:1028A0002C2400080000020610B541F0EDFB0446A0
:1028B00038B154B1FFF7EEFDFFF7F8FD5CB12046EB
:1028C00010BD46F075FA0446F3E740F6E4410020F7
:1028D00046F02CFBEEE7FFF7D9FF0446EFE70000D8
:1028E000014B01221A7070474C24000838B50F4C78
:1028F0000F49204640F078F800220E49204640F06B
:10290000DEF801221146204640F0A5F80A4D0B4999
:10291000284640F069F82146284640F015F9012282
:102920001146284640F097F838BD00BF40310008F6
:102930006CC8071000007701743000083CC807100D
:1029400010B582B000220421142009F013FF104BAF
:102950001860FFF7CBFF0F4B00930F4B542255210C
:102960000E4842F0AFFB00B101BE0C4C00220C49F6
:10297000204642F025FF012303221021204642F089
:102980002BFF204642F0C2FA00B101BE02B010BDDA
:102990004C310008CCCE0610743000087C300008A2
:1029A000E128001000B5ADF6040D4FF400620021DF
:1029B000684664F05FF9FFF7C3FF2EE03DF912307F
:1029C000002BB8BF5B421B49086810FA83F30B6009
:1029D0000132B2F5806FF1D3164B1A68164B1B68A3
:1029E000B3EB123F23D228214FF47F4052F028FA54
:1029F000104A13681B0B1360104B186820B100239A
:102A00000A220C4909F014FF4FF4806269460C4811
:102A100042F04CFE01200AF045FC0A4B1B78002BCB
:102A2000F8D00022074B1A70024B1A60D1E752F01F
:102A3000A1F9DDE748310008482400084C310008BE
:102A40007C3000084C240008F8B505460E4601F01D
:102A50004AF804463FA1D1E9000101F005F8024619
:102A60003349204600F0F0FF286862F061FF00F073
:102A7000FBFF02462F49204600F0E6FF2E4801F0FA
:102A80001DF802462D49204600F0DEFF287962F04D
:102A90004FFF00F0E9FF02462949204600F0D4FF2D
:102AA000687962F045FF00F0DFFF024625492046C5
:102AB00000F0CAFFE88862F03BFF00F0D5FF024655
:102AC0002149204600F0C0FF688962F031FF00F024
:102AD000CBFF02461D49204600F0B6FF287A62F07F
:102AE00027FF00F0C1FF0246194F3946204600F08B
:102AF000ABFF287A62F01CFF00F0B6FF02463946B1
:102B0000204600F0A1FF204600F06AFF65F068FE55
:102B10000546204600F064FF0146ADB22A46304625
:102B200065F07AFE00237355204600F02FFFF8BDB4
:102B3000D8CE0610DCCE0610E0CE0610E8CE061089
:102B4000F4CE061004CF061014CF061024CF0610C2
:102B500034CF061000E00F05410678420000000067
:102B6000F8B504460F4600F0BEFF06467EA1D1E947
:102B7000000100F079FF02466749304600F064FF2B
:102B8000206862F0D5FE00F06FFF024663493046D0
:102B900000F05AFF624800F091FF0246614930465A
:102BA00000F052FF00F09FFF054602465E493046A6
:102BB00000F04AFF606862F0DDFE00F055FF02465B
:102BC0005A49284600F040FFA06862F0D3FE00F0AA
:102BD0004BFF02465649284600F036FF00F083FFBF
:102BE000054602465349304600F02EFFB4F90C006A
:102BF00062F0AEFE00F038FF02464F49284600F072
:102C000023FFB4F90E0062F0A3FE00F02DFF024690
:102C10004A49284600F018FFB4F9100062F098FE07
:102C200000F022FF02464649284600F00DFFB4F9A5
:102C3000180062F08DFE00F017FF02464149284659
:102C400000F002FFB4F91A0062F082FE00F00CFFFF
:102C500002463D49284600F0F7FEB4F91C0062F038
:102C600077FE00F001FF02463849284600F0ECFEEE
:102C7000B4F9240062F06CFE00F0F6FE024634491E
:102C8000284600F0E1FEB4F9260062F061FE00F093
:102C9000EBFE02462F49284600F0D6FEB4F9280084
:102CA00062F056FE00F0E0FE02462B49284600F096
:102CB000CBFE00F018FF054602462849304600F0DA
:102CC000C3FEE06A62F034FE00F0CEFE0246244904
:102CD000284600F0B9FE206B62F02AFE00F0C4FE28
:102CE00002462049284600F0AFFE304600F078FE4C
:102CF00065F076FD0446304600F072FE0146A4B24F
:102D00002246384665F088FD00233B55304600F0EA
:102D10003DFEF8BDAFF30080D8CE0610DCCE061025
:102D2000E0CE0610E8CE061044CF06104CCF0610B9
:102D300058CF061064CF061078CF061080CF06104B
:102D400088CF061090CF061098CF0610A0CF06109F
:102D5000A8CF0610B0CF0610B8CF0610D4CF0610FB
:102D6000C0CF0610CCCF061000E00F054106784218
:102D700008B5012302220021042040F019FF00B110
:102D800001BE0123022200210C2040F011FF00B1FE
:102D900001BE0C490C4B0B60042040F075FF012371
:102DA00007220221042040F095FF0849084B0B60E0
:102DB0000C2040F069FF0123072202210C2040F083
:102DC00089FF08BD50310008152E00106031000841
:102DD000D52D001000B583B00023019301228DF89A
:102DE000032001AA0DF103010948006809F094FAD3
:102DF000019B4BB14FF0E0234FF08052C3F8042DFC
:102E0000BFF34F8FBFF36F8F03B05DF804FB00BFBC
:102E10007431000800B583B00023019301238DF8BD
:102E200003300C4B186888B1002301AA0DF103018F
:102E300009F072FA019B4BB14FF0E0234FF0805242
:102E4000C3F8042DBFF34F8FBFF36F8F03B05DF84E
:102E500004FB00BF7031000808B5002201210846BC
:102E600009F088FC074B186000220121084609F090
:102E700081FC054B1860FFF77BFF4FF47A700AF076
:102E800011FAFAE7703100087431000801604860F7
:102E90007047000010B5064B1B6828209847044671
:102EA00018B12822002163F0E5FE204610BD00BFC6
:102EB0005424000848B10346006840B110B59C682E
:102EC000204465F08DFC204410BD00207047002098
:102ED0007047000070B5002930DB044600282FD071
:102EE0000568D5B18368194442688A4217D2C3681D
:102EF00043BB4E0015D4154B1B683046984705461A
:102F0000A0B16268216863F08DFE114B1B682068D8
:102F1000984766602560A3681D44284670BD1D441F
:102F2000FBE7002910DB6FF00046E4E7084B1B6865
:102F300020689847002363602360EEE70025ECE7F4
:102F40000546EAE70025E8E70025E6E754240008FF
:102F50005024000838B505460C46D0E9060163F058
:102F6000C9F851EA000311D154B102212046FFF7FC
:102F7000B1FF044614B1104B1B882380204638BD96
:102F80000E4B1B68022098470446F3E76CB11521ED
:102F90002046FFF79FFF0446002CEFD0D5E906231B
:102FA0000749204665F098FBE8E7044B1B681520AD
:102FB00098470446F0E700BF1C030710542400089C
:102FC000D8CF061070B5064670B165F009FC441CF8
:102FD000064B1B6820469847054618B122463146E5
:102FE00063F020FE284670BD0546FBE75424000828
:102FF0002DE9F8430E4618B10546844600241AE030
:1030000069B103213046FFF765FF0646002E00F048
:10301000C480634B1A889B783280B370BDE0614BEB
:103020001B68032098470646F0E7012300E00123D0
:103030001C430CF1010C9CF800305BB15A1ED2B25B
:103040001E2AF4D9222B03D05C2BEED00023EFE70D
:103050000123EDE7ACBBACEB0504C6B1E11C304687
:10306000FFF738FF0646002E00F0978037464FF0F6
:10307000220807F8018B2946384665F0A9FB07F8B6
:10308000048004F1010C002307F80C3085E0454B67
:103090001B68E01C98470646E5E71F2C0FD809F18E
:1030A000060901373C7884B109F1010821463E4800
:1030B00065F077FB0028F0D009F10209F1E7C1467D
:1030C000EFE72F464FF00009ECE7D6B109F1030115
:1030D0003046FFF7FFFE0646002E5ED03446222320
:1030E00004F8013B2B78002B53D01F2B10D9222B37
:1030F0000ED05C2B0CD00135224602F8013B144661
:10310000F0E7284B1B6809F1030098470646E3E700
:1031100020465C2300F8013B15F8012B222A15D824
:10312000082A31D3A2F108031A2B2DD8DFE803F0C7
:103130001828202C1C242C2C2C2C2C2C2C2C2C2C0B
:103140002C2C2C2C2C2C2C2C2C2C14005C2A1BD141
:103150005C2363700234C5E7222363700234C1E745
:10316000622363700234BDE7662363700234B9E7FB
:103170006E2363700234B5E7722363700234B1E7E3
:10318000742363700234ADE7084965F0A5FA06348C
:10319000A8E722232370002363703046BDE8F8833C
:1031A000E0CF061054240008E4CF0610ECCF061040
:1031B00008B50069FFF71CFF08BD00002DE9F04FBE
:1031C00089B08046019117461D468368002601E0BC
:1031D00001361B68002BFBD166BB9DB187B1019BFB
:1031E000191D2846FFF776FE0446FCB123467B22D4
:1031F00003F8012BB7B1A31C0A22627001990FE0FA
:103200000321EEE7A44B1B6827B1019A101D9847D4
:103210000446EAE70320FAE7092203F8012B013606
:103220008E42F9D37D221A7000225A70204609B0CE
:10323000BDE8F08F002D00F0A980D5F808B0E7B107
:103240004FF0020A0AF101012846FFF743FE044647
:103250000028EBD003467B2203F8012B17B1831C17
:103260000A22427000221A70AB685344AB60D8F84F
:103270000860019B03F1010920E04FF0010AE1E73A
:1032800049462846FFF726FE04460028CED00023F4
:1032900003E0092204F8012B01334B45F9D3AB6855
:1032A0004B44AB600EE04FF0000836E0002338E0FE
:1032B00000232370AB684344AB603668002E45D0D2
:1032C000002FDDD12946306AFFF792FE0446002820
:1032D000ACD02846FFF7EEFDA86051462846FFF720
:1032E000F9FD04460028A1D03A2303700FB1092349
:1032F0004370AB685344AB602B463A464946304670
:1033000000F058F90446002890D02846FFF7D2FD77
:10331000A860002FC7D04FF001083368002BC5D03C
:103320000123984408F101012846FFF7D3FD044624
:1033300000283FF47BAF336813B12C2304F8013B22
:10334000002FB5D00A2304F8013BB1E787B1019BF8
:10335000991C2846FFF7BEFD044600283FF466AFDF
:1033600087B97D232370002363702C685C445DE77C
:103370000221EEE7092304F8013B0BF1010B934511
:10338000F8D3EEE74FF0000B019AF8E7B400424B98
:103390001B68204698470590002800F007813E4BA7
:1033A0001B68204698470290F8B1224600210598F4
:1033B00063F060FC22460021029863F05BFCD8F8C1
:1033C0000880019B5A1C0492002F43D008330393BA
:1033D0004FF0000BDA460696DDF814900795454647
:1033E000B8465F46DDF808B00CE02C4B1B6805982A
:1033F0009847029C1AE700263344039A1344023389
:1034000003932D684DB347BB0021286AFFF7F0FDF9
:1034100004464FEA8A064BF82A00002342460499E4
:10342000284600F0C7F849F806000AF1010A6CB115
:1034300070B165F0D5F90646204665F0D1F933182C
:10344000B8F1000FD7D0019AD61CD5E70127D8E7ED
:103450000127D6E707230393BAE7069EBB464746F4
:10346000079DBBF1000F2DD10B4B1B6803989847AC
:10347000044638B305467B2305F8013B17B1851C8C
:103480000A2343704FF0000885F800800396DDF8AA
:1034900014B0049E04943BE0542400085024000817
:1034A0000134B44214D2A70059F8240010B1404BA3
:1034B0001B68984758F807000028F1D03C4B1B6860
:1034C0009847EDE70024DDF81480DDF80890E8E780
:1034D000374C2368029898472368059898472C46EC
:1034E000A4E6092205F8012B0133B342F9D314E015
:1034F0000023FAE700232B702D4C2368029A52F820
:103500000900984723685BF80900984708F101080B
:10351000039B984532D2002FEAD14FEA8809029BDB
:1035200053F828A0504665F05BF904460246514620
:10353000284663F077FB2B1903F1010A3A222A553A
:103540001FB103F1020A09225A705BF809105046B4
:1035500065F03EF95BF8090065F042F90AEB0005F9
:10356000039B013B434503D02C230AF8003001356F
:10357000002FBFD00A2305F8013BBBE7049C0C4E8B
:103580003368029898473368059898475FB97D2358
:103590002B7000236B7049E6092205F8012B0133DB
:1035A0008B42F9D3F3E700230199F9E7059C3DE647
:1035B00050240008F8B50646002800F0C4801C46D8
:1035C000002B78D0037B202B15DC202B00F2BD8054
:1035D000DFE803F0374429BB51BBBBBB5FBBBBBBC0
:1035E000BBBBBBBB65BBBBBBBBBBBBBBBBBBBBBB81
:1035F000BBBBBBBB6B00402B13D10569002D40D07A
:10360000284665F0EDF8071D39462046FFF762FCB5
:103610000546002800F09A803A46316963F002FBC3
:1036200094E0002592E005212046FFF753FC054673
:10363000002800F08B80474B186828601B792B719D
:1036400084E006212046FFF745FC054600287DD092
:10365000414B186828609B88AB8077E005212046A5
:10366000FFF738FC0546002870D03C4B18682860EE
:103670001B792B716AE021463046FFF76BFC05464B
:1036800064E0E368002B61D1354B1B6820689847E4
:103690005CE021463046FFF78BFD054656E02346A9
:1036A000304600F05FF8054650E023463046FFF70D
:1036B00085FD05464AE0037B202B14DC202B47D8F0
:1036C000DFE803F01F241A46294646462F464646A1
:1036D000464646463546464646464646464646469B
:1036E000464646463B00402B04D10069FFF76AFC82
:1036F00005462BE0254629E01648FFF763FC054602
:1037000024E01548FFF75EFC05461FE01348FFF76D
:1037100059FC05461AE000213046FFF71BFC054620
:1037200014E000213046FFF743FD05460EE000237C
:10373000304600F017F8054608E000233046FFF752
:103740003DFD054602E0054600E000252846F8BD9F
:103750002546FBE7F4CF0610FCCF061004D0061078
:10376000502400082DE9F04F83B081468846154665
:103770001F468368002401E001341B68002BFBD145
:103780009CB1002F68D0D7F808A001213846FFF778
:10379000A1FB0646002800F0EC805B230370BB68A9
:1037A0000133BB60D9F808401DE06FB103213846F2
:1037B000FFF790FB0646002E00F0DB80704B1A8866
:1037C0009B783280B370D4E06E4B1B68032098471F
:1037D0000646F0E74FF001091CE000221A70BB68B2
:1037E0004B44BB60246844B33B462A4608F10101C0
:1037F0002046FFF7DFFE0646002800F0BA80384674
:10380000FFF758FBB8602368002BEBD0002DE1D008
:103810004FF0020909F101013846FFF75BFB06464C
:10382000002800F0A68003462C2203F8012B002D6F
:10383000D3D0831C20224270CFE702213846FFF705
:1038400049FB0646002800F094805D2303700023A6
:1038500043703E6856448CE0A6004A4B1B683046D5
:1038600098478246002800F088803246002163F0A5
:1038700001FAD9F80860002399464FF0050B00942F
:1038800001971F4606E00023184483440BF1020B06
:103890003668A146A6B19FB900232A4608F1010166
:1038A0003046FFF787FE09F101044AF8290028B1E4
:1038B00064F096FF002DE6D00123E5E70127E7E756
:1038C000009C3B46019FC3B92E4B1B685846984746
:1038D00098B180465B2308F8013B00274770A1465A
:1038E00000901BE0284B1B6898470135AC4206D975
:1038F0005AF825000028F5D1F7E70025F6E7224B16
:103900001B68504698473E4633E000221A7098469E
:103910001D4B1B685AF80B0098470137B9451DD954
:103920004FEA870B5AF82740204664F059FF0646B5
:1039300002462146404663F075F9B04409F1FF3371
:10394000BB42E5D043462C2203F8012B002DDCD0EE
:1039500008F10203202288F80120D6E7009E0A4BD6
:103960001B68504698475D2388F80030002388F88C
:103970000130304603B0BDE8F08F0646F9E700BFDE
:103980000CD00610542400085024000838B5044612
:1039900016E0E36813F4807F04D1206910B10F4B67
:1039A0001B689847E36813F4007F04D1206A10B1C4
:1039B0000A4B1B689847094B1B68204698472C46C2
:1039C00054B12568E36813F4807FE2D1A068002831
:1039D000DFD0FFF7DBFFDCE738BD00BF5024000875
:1039E00008B500231A461946FFF7E4FD08BD71B17A
:1039F0000A4660B108B583683BB118461B68002BC6
:103A0000FBD11146FFF742FA08BD8160FCE7704721
:103A1000B2B170B506460D461446D36813F4007F64
:103A200004D1106A10B1074B1B6898472562E36800
:103A300043F40073E36021463046FFF7D8FF70BDC2
:103A4000704700BF5024000838B5054614460846A4
:103A5000FFF7B8FA014622462846FFF7D9FFE36888
:103A600023F40073E36038BD70B504460D46FFF7DC
:103A700011FA064660B10423C36000220D4B2046B4
:103A8000294662F055FA28B100220A4BC6E90623FE
:103A9000304670BD0022084B2046294662F03EFAAF
:103AA00020B10022044BC6E90623F1E7C6E906452A
:103AB000EEE700BF0000E0430000E0C338B5044675
:103AC000FFF7E8F9054638B10823C3602046FFF741
:103AD00079FA0446286108B1284638BD2846FFF720
:103AE00055FF2546F8E708B5FFF7D4F908B12023BC
:103AF000C36008BD00B583B001A9094B186808F080
:103B000082FC019048B14FF0E0234FF08052C3F89F
:103B1000042DBFF34F8FBFF36F8F03B05DF804FB2D
:103B20008831000808B50249024806F0EEFB08BDDE
:103B3000F82200080000364008B5024850F0C8F8E6
:103B400008BD00BF6024000810B50C4C204604F0EE
:103B500003FF0B490B484FF061FE0B4B4FF4002263
:103B6000C3F884215A60FFF7E7FF22460749022085
:103B700004F006FF204604F017FE10BDF8220008EE
:103B8000253B001010D0061000E100E0F53A0010CF
:103B900038B52B4C2146002007F0CFFA05462246C7
:103BA0000021012007F0D9FA044675B1254B1B68A6
:103BB0005BB9254B01221A70244B186840B10023D1
:103BC0003222214908F034FE02E01F4B00221A7015
:103BD00074B11F4B1B685BB91E4B01221A701E4B40
:103BE000186840B1002332221A4908F021FE02E091
:103BF000184B00221A701249022007F0C4FA036819
:103C00001B88164AA2FB03235B08154A138002791E
:103C100014490A705AB1144A1288934207D0134BC0
:103C2000186820B1002332220D4908F001FE054B2F
:103C30001D60074B1C600A4B1A880B4B1A8038BD5D
:103C4000F8220008783100087C310008943100081F
:103C5000803100088431000898310008ABAAAAAA74
:103C60008C310008903100088E3100089C3100082A
:103C700008B50021012008F0BBFD174B1860002299
:103C80000121084608F076FD144B1860002201213E
:103C9000084608F06FFD124B1860002202210A202E
:103CA00008F068FD0F4B1860FFF74EFF0E4806F056
:103CB00024FB4FF0FF31084B186808F0B6FE0A4CA1
:103CC000204604F0D3FDFFF763FF204606F015FB06
:103CD000322009F0E7FAECE7883100089431000857
:103CE000983100089C310008F822000800B59FB008
:103CF00000220C21042008F03DFD804B18600022BA
:103D00003421042008F036FD7D4B18607D4864F0B6
:103D1000F3FA7D4864F076FB7C4864F073FBD8E0EE
:103D200000238DF805307A4B1B6833B100220DF16A
:103D30000501784B186808F0CDFB0023ADF808307A
:103D4000754B186818B1002202A908F0C3FB0023C4
:103D50008DF80630714B186820B100220DF1060174
:103D600008F0B8FB00238DF807306D4B186820B1C0
:103D700000220DF1070108F0ADFB0023ADF80A3079
:103D8000684B186820B100220DF10A0108F0A2FB6F
:103D9000654A13680133136006939DF804308DF86B
:103DA0001C309DF805308DF81D30BDF80830ADF899
:103DB0001E309DF806308DF820309DF807308DF8C4
:103DC0002130BDF80A30ADF822304C4B186820B1D4
:103DD0000023642206A908F02BFD544B186818B183
:103DE000002204A908F076FB514B186818B1002294
:103DF00009A908F06FFB4F4B186818B1002203A9FE
:103E000008F068FB4C4B1C6801341C603422002114
:103E100011A862F02FFF11949FED488ADDED047A1E
:103E200067EE887A17EE900A61F0A4FD61F0DCFB82
:103E30000022434B61F020FF62F0A4F81290DDED08
:103E4000057A67EE887A17EE900A61F093FD61F0CB
:103E5000CBFB00223A4B61F00FFF62F093F8139016
:103E6000BDF92430ADF85030BDF92630ADF85230F0
:103E7000BDF92830ADF85430BDF93030ADF85C30C4
:103E8000BDF93230ADF85E30BDF93430ADF8603098
:103E9000BDF93C30ADF86830BDF93E30ADF86A3060
:103EA000BDF94030ADF86C30039B1D93144B18687E
:103EB00020B10023642211A908F0BAFC214B1B6831
:103EC00098690521803047F0F9FC4FF47A7009F0C9
:103ED000E9F900238DF804300D4B186800283FF4F1
:103EE0001FAF002201A908F0F5FA01287FF418AFEE
:103EF0009DF80410144864F0FFF911E7A831000898
:103F0000AC31000818D0061024D0061040D006109E
:103F10007031000874310008D4330008943100086F
:103F2000983100089C310008A0310008EC340008EA
:103F3000CC3200084C310008A43100080000C8420F
:103F400000005940280C01085CD0061070470000A2
:103F500070B582B0FEF7A8FC00B101BE01230622B5
:103F600019460D203FF024FE00B101BE01230622B8
:103F7000194659203FF01CFE00B101BE00233B2230
:103F80000521092050F064FE00B101BE62B64FF475
:103F9000E1322821292050F01BFE2B4864F0ACF9B7
:103FA000002401940094234680222849284808F0E0
:103FB000C7FF01940226009623464FF480722549DC
:103FC000254808F0BDFF01940125009523464FF4D4
:103FD00020722249224808F0B3FF01940323009382
:103FE00023464FF420721F491F4808F0A9FF01948F
:103FF000009623464FF440721C491D4808F0A0FF6C
:104000000194009523464FF420721A491A4808F08B
:1040100097FF01940423009323464FF4C06217498D
:10402000174808F08DFF01944FF0FF3300932346AB
:104030004FF400621349144808F082FF08F0B4FFFF
:1040400001BE204602B070BD18D0061074D0061014
:10405000592E00107CD00610AD46001090D00610EE
:10406000713C00109CD00610E1480010A8D006104A
:1040700021460010C0D00610A5290010CCD0061093
:10408000ED3C0010D8D006103944001010B584B0B3
:104090003CF048FB50BB1D4A136843F00403136017
:1040A0004FF4007008F074F8194B186018B3174AF1
:1040B000136843F008031360164B02930023019327
:1040C000154B0093154B164A12684FF400713CF0E3
:1040D00083FB0446A8B90D4A136843F0100313602C
:1040E000104864F08FF9204604B010BD04460E4815
:1040F00064F088F9F7E70D4864F084F94FF0FF3475
:10410000F1E70B4864F07EF9EDE700BFBC31000831
:10411000B4310008B0310008C54300107C24000809
:10412000E424000830E20610E4E106100CE2061078
:104130005CE2061030B5A5B054F064FF18B100255C
:10414000284625B030BD06AD78220021284662F011
:1041500091FD2A4B93E8070085E80700284C0FCC17
:10416000CDF83900CDF83D10CDF84120CDF84530DF
:10417000244B1F932946244864F0BEF800242546AA
:10418000772C32D801A906A854F00CFD054668B179
:10419000C4F1770341F2883201461C4864F0ACF860
:1041A00041F2883009F07EF80134E9E706A91848A1
:1041B00064F0A2F8174A136843F0020313609DF8F5
:1041C0000430042B09D0062BBAD102A813F0B6FF95
:1041D0000146114864F090F8B2E702A812F0CEF858
:1041E00001460E4864F088F8AAE70D4864F00AF921
:1041F0000A210C4864F080F8A2E700BF7CE20610B8
:1042000088E206100400400098E2061020E3061041
:10421000B8E20610BC31000804E30610E8E206101C
:1042200080E30610B0E3061070B588B0334A02ABE5
:1042300007CA03C323F8022B120C1A700025CDF80D
:104240001350CDF81750CDF81B508DF81F502C4C43
:104250002C4BA3602C4B23610A23A3810823A38248
:104260000DEB03062660304664F0BAFA81B2A180F5
:10427000264B1A6800929B883246254864F03CF829
:104280002C4613E01E49234B18683CF0CDFB054635
:1042900000B3C4F195034FF4FA6201461E4864F07E
:1042A0002BF84FF4FA6008F0FDFF0134952C1CD870
:1042B00054F0A8FE0028E5D1184864F0A3F8184A85
:1042C000136823F002031360FFF734FF054600284C
:1042D000D8D007E0134864F095F8114A136843F00A
:1042E00020031360284608B070BD0F4864F08AF8B8
:1042F00005210E4864F000F8F4E700BF60E70610FF
:1043000084240008E4E70610E8E306107C24000893
:10431000F4E30610B0310008A0E4061030E4061003
:10432000BC31000880E40610F4E4061020E5061015
:1043300008B51F4B1B6813F0200F19D11C4B1B68CD
:1043400013F0100F1CD11A4B1B6813F0080F1CD16F
:10435000174B1B6813F0040F1CD1154B1B6813F08F
:10436000020F1AD1124B1B6813F0010F1DD108BDAB
:10437000104864F047F8104B18683CF02FFDDDE75B
:104380000D4B18683CF062FDDDE70C4B186807F038
:104390000FFFDDE73CF0AEFDDFE754F0A9FB00289E
:1043A000E0D1074864F02EF8DCE754F08FFFDEE739
:1043B000BC31000854E50610B0310008B4310008E3
:1043C0007CE5061084B000B583B005A880E80E0037
:1043D0009DF81430D3B1012B21D1134A136823F077
:1043E00020031360114864F00DF802238DF80730A4
:1043F00000234FF0FF320DF107010D48006808F06F
:1044000017FA03B05DF804EB04B07047064A13686E
:1044100043F04003136007A800F0FEF9F1E70548F8
:1044200063F0F0FFEDE700BFBC3100089CE506102B
:10443000B8310008CCE5061000B585B000228DF833
:104440000C200121032008F095F93A4B186003A8CD
:1044500054F096F928BB384A136843F001031360FF
:10446000364863F0CFFFFFF765FEE8B9FFF70EFEB1
:10447000D0B9FFF7D9FEB8B94FF4FA6008F012FFCF
:104480002F4B01930223009300234FF400622D4928
:104490002D4808F055FD01281ED02C4863F0B2FFCE
:1044A00002E02B4863F0AEFF2A4863F0ABFF2A4BD3
:1044B000186808B109F0B8FA214B186808B109F07A
:1044C000B3FAFFF735FF254863F09CFF002009F0A1
:1044D000ABFA05B05DF804FB2148FFF737FD06E0B5
:1044E000204863F08FFFFFF79FFE0028DCD14FF0DC
:1044F000FF320DF10F010F4B186807F0EBFF012899
:10450000F5D19DF80F30022BF1D1174B18683CF014
:1045100065FC54F077FD0028E2D1074A136823F0C8
:1045200002031360114863F06DFFFFF703FE0028DC
:10453000D6D0B9E7B8310008BC3100082CE6061027
:10454000D833000854E606101147001064E6061040
:10455000F8E5061004E70610DC33000834E706101F
:1045600088E60610E4E60610B0310008C0E6061042
:1045700000B587B001230622194663203FF018FBDF
:1045800000B101BE00230493039308220292019319
:10459000FF230093622361226021104844F06EF9EA
:1045A00000B101BE0E490D4843F02AFE00B101BE24
:1045B00063220A490B4852F07FFD38B10A4B197843
:1045C0000A4863F099FE07B05DF804FB064B012230
:1045D0001A70074863F016FFF5E700BFC031000806
:1045E00000127A0030320008C832000878E706105E
:1045F00098E7061008B50749074852F087FD38B913
:10460000064B186820B100236422024908F010F913
:10461000002008BDA832000830320008CC32000863
:1046200008B500222021052008F0A4F8064B1860E8
:10463000FFF79EFF03E001BE012008F033FEFFF705
:10464000D9FF0028F7D1F7E7CC32000810B58AB0BF
:104650000022562111483DF0D1FA00B101BE0DF102
:10466000140C0F4C0FCCACE80F002368CCF80030D2
:1046700005A90A483CF040FF00B101BE03AB094A5E
:1046800092E8030083E803000093FF2356220349C6
:1046900005483DF045F80AB010BD00BFDC32000807
:1046A000B0E70610C4E70610D032000800B583B0AA
:1046B00000220221084608F05DF8114B1860FFF750
:1046C000C5FF08E0002364220DF1060108F0B0F8F0
:1046D000012008F0E7FD0B483DF032F90A4B186065
:1046E00000EB4000C000094B83FB0023C017C0EB68
:1046F0002350ADF80600024B18680028E2D1E7E726
:10470000D4330008D0320008D03300084B6C395144
:1047100070B5ADF5327D0BE0364B186828B100223C
:1047200004A907F0D7FE012838D0012008F0BAFD0F
:10473000314B18680028EFD0002201A907F0CAFE0B
:104740000128E9D162AD294601A8FEF77DF92B4C7D
:104750002B4E666022232381E560284664F040F8F2
:10476000206132462946274863F0C6FD2146264B84
:1047700018683CF047FA01460028CDD0234863F082
:10478000BBFD01238DF8473000234FF0FF320DF1C0
:1047900047011F48006808F04BF8BDE712AD2946F5
:1047A00004A8FEF7DDF9154C1A4E6660212323811B
:1047B000E560284664F014F8206132462946114825
:1047C00063F09AFD2146104B18683CF01BFA014635
:1047D0000028AAD00D4863F08FFD01238DF84730E3
:1047E00000234FF0FF320DF147010948006808F03F
:1047F0001FF89AE7AC310008A8310008E824000847
:10480000CCE70610F0E70610B031000824E80610E7
:10481000B83100085CE8061030B585B0C568046999
:104820000195009490F9003042680189174863F0BF
:1048300063FD02238DF80C30072C17D0082C20D1F3
:1048400022462946124863F0D3FFD0B901238DF8E0
:104850000D301048FFF77AFB00234FF0FF3203A919
:104860000D48006807F0E4FF05B030BD2246294638
:104870000A4863F0BDFF0028E0D100238DF80D3019
:10488000E7E7074863F0BEFDEEE700BF8CE80610DF
:1048900010E9061058E90610E033000808E9061090
:1048A0001CE9061008B500233022312109483FF0E9
:1048B000E1FD00B101BE084906483FF051FE00B1DC
:1048C00001BE77220349054852F0D8FF00B101BE6E
:1048D00008BD00BFE4330008FC2400089834000839
:1048E00000B585B000220821052007F043FF0D4BDD
:1048F0001860FFF7D7FF07E00023C82202A907F0DE
:1049000097FF012008F0CEFC01AA6946064852F044
:104910005EFF009B0293019B0393024B18680028E3
:10492000EAD1EEE7EC3400089834000800000000FB
:104930000230800803D001300238FCD100BF00BF34
:104940007047EFF3108072B6704780F3108870479D
:1049500050B1C2695AB1026A62B1436A0BB1002018
:1049600070474FF0FF3070474FF0FF3070474FF007
:10497000FF3070474FF0FF3070470222C2710823AA
:1049800043711021017103218171C2734373142398
:1049900003730023837343688360C36803617047B4
:1049A0004B790C2B0BD84A7A93420BD0027802F049
:1049B000F00203F00F0313430370002070476FF001
:1049C0000300704700207047CB79072B0CD8CA7AB8
:1049D00093420CD0027802F08F021B0103F07003A7
:1049E00013430370002070476FF0030070470020EE
:1049F00070478B790C2B0BD88A7A93420BD00278B4
:104A000002F0F00203F00F0313430370002070471D
:104A10006FF003007047002070474B7B0D2B0BD8C5
:104A20004A7C93420BD0027802F0F00203F00F03AD
:104A300013430370002070476FF00300704700209D
:104A40007047CB7B022B09D8027802F0CF021B0102
:104A500003F0300313430370002070476FF003002E
:104A600070478B7B042B0BD88A7C93420BD0027847
:104A700002F0F80203F007031343037000207047AD
:104A80006FF003007047002070470B7DC3F3810374
:104A9000032B13D8DFE803F002060A0E012303807C
:104AA0000020704702230380002070470623038004
:104AB0000020704708230380002070476FF0040037
:104AC00070478BB110B59C46DC6984B192B19B787C
:104AD000012B06D013460A4601469CF80100A04768
:104AE00010BD40F08000F5E74FF0FF3070474FF009
:104AF000FF30F5E76FF00B00F2E738B504460D46DE
:104B00000B46022201464020FFF7DBFF00B138BD13
:104B100029462046FFF744FF0028F8D129462046C1
:104B2000FFF752FF0028F2D12946601CFFF761FF12
:104B3000EDE738B504460D460B46022201464220F9
:104B4000FFF7BFFF00B138BD29462046FFF765FFDC
:104B50000028F8D129462046FFF773FF0028F2D13C
:104B60002946601CFFF77DFFEDE700B583B00346E3
:104B700000228DF8072001220DF107010220FFF726
:104B8000A0FF9DF807305B088DF8073003F00F0396
:104B90008DF80730012B08D0022B09D0032B0AD047
:104BA000072B0BD003B05DF804FB6FF00500F9E7AD
:104BB0006FF00600F6E76FF00700F3E76FF008000C
:104BC000F0E730B585B005460C461346002101914B
:104BD00002918DF80C10821D01A91220FFF771FFC0
:104BE00058BB02469DF805301B021BB29DF804100D
:104BF0000B4323809DF807301B021BB29DF8061063
:104C00000B4363809DF809301B021BB29DF808100E
:104C10000B43A380032D04D00023A360104605B0EE
:104C200030BD9DF80A109DF80B009DF80C301B0458
:104C300043EA00230B43A360F0E76FF00102EDE7C6
:104C400010B584B00C4613460021009101910291E9
:104C5000CDF80B1020BB062269460C20FFF731FF70
:104C60000246002848D19DF801301B021BB29DF876
:104C700000100B4323809DF803301B021BB29DF8EC
:104C800002100B4363809DF805301B021BB29DF898
:104C900004100B43A3800023A360104604B010BD92
:104CA00002460C3269460C20FFF70BFF024630BB70
:104CB0009DF801301B021BB29DF800100B432380AE
:104CC0009DF803301B021BB29DF802100B4363805A
:104CD0009DF805301B021BB29DF804100B43A38006
:104CE0009DF80C109DF80D009DF80E301B0443EA52
:104CF00000230B43A360D0E76FF00102CDE76FF014
:104D00000102CAE770B584B006460D46144600227B
:104D1000009201920292CDF80B2000F10C0269463C
:104D20000C20FFF7CEFE002845D102469DF8013049
:104D30001B021BB29DF800100B4323809DF803302B
:104D40001B021BB29DF802100B4363809DF80530D7
:104D50001B021BB29DF804100B43A3809DF8073083
:104D60001B021BB29DF806100B432B809DF80930E7
:104D70001B021BB29DF808100B436B809DF80B3093
:104D80001B021BB29DF80A100B43AB80032E05D00B
:104D90000023AB60A360104604B070BD9DF80C10FA
:104DA0009DF80D009DF80E301B0443EA00230B43D1
:104DB000AB60A360EFE76FF00102ECE72DE9F84389
:104DC000002B37D00546894690461E461C6A002CAB
:104DD00033D0002A34D09B78012B08D0337A112BA2
:104DE00008D0337C152B05D0002427461EE000F0A8
:104DF0007F05F3E743464A4629467078A0470746B1
:104E0000736A01209847F7B93846BDE8F883376AD6
:104E1000012309EB040229467078B847074601359B
:104E2000EDB2736A012098470134E4B2A3B243455E
:104E3000EDD3E8E74FF0FF37E6E74FF0FF37E3E762
:104E40006FF00B07E0E76FF00107DDE710B582B008
:104E500004460023ADF80430014601A8FFF74DFEDB
:104E600008B102B010BD2346012201A94020FFF77E
:104E7000A5FF0028F5D163796372E379E3722346D5
:104E800001220DF105014120FFF798FF0028E8D12C
:104E9000A379A372E5E710B582B004460023ADF80C
:104EA0000430014601A8FFF744FE08B102B010BD6E
:104EB0002346012201A94220FFF780FF0028F5D1F7
:104EC000637B6374E37BE374234601220DF10501E8
:104ED0004320FFF773FF0028E8D1A37BA374E5E725
:104EE00030B583B004460D4600238DF807300B46DD
:104EF000012201464020FFF7E4FD38B92B79122B3F
:104F000006D0227894F90030002B15DB03B030BDB9
:104F1000237863F07F0323702B4601222146402033
:104F2000FFF74CFF0028F1D12B4602220DF10701BB
:104F30005820FFF743FFE9E702F07F0222702B467B
:104F4000012221464020FFF739FFDFE730B583B06B
:104F500000238DF807300279A2F11003DBB2022B97
:104F600020D80446037A9A4203D10025284603B08C
:104F700030BD01460DF10700FFF7B2FF05460028DE
:104F8000F4D123460122211D7E20FFF717FF05469D
:104F9000237A102B02D023792372E7E7636A052076
:104FA0009847F8E76FF00305E0E738B50446027B61
:104FB000A2F11403DBB2012B01D9172A20D1237CE3
:104FC0009A4202D10025284638BD2346012204F129
:104FD0000C017E20FFF7F2FE0546237C142B04D043
:104FE000172B06D0237B2374EDE7636A5120984783
:104FF000F8E7237B152BF5D1636A0A209847F1E780
:105000006FF00305DFE72DE9F04F85B0824691464A
:105010001F460E9D8DF807100024029403945FFA3A
:1050200080FBD8462646B3B2BB423AD22B46012279
:105030000DF107014D20FFF7C1FE04466B6A0A20FF
:105040009847002CEFD12B46524602A90420FFF7C7
:1050500038FD044618BBBA4503D95FFA87F8002328
:1050600013E0BB1B5345FADA5FFA87F8A8EB060892
:105070005FFA88F8F3E7F21803F11001694411F8B8
:10508000081C09F802100133DBB24345F3D39DF845
:1050900007305B448DF807305E44F6B2C3E76FF02B
:1050A0000104204605B0BDE8F08F10B582B004467B
:1050B00000238DF8073019238DF8063003460122AE
:1050C0000DF106017E20FFF779FE80B9636A0120A9
:1050D0009847234601220DF107016B20FFF7F1FCF1
:1050E0009DF8073043F020038DF8073008B102B077
:1050F00010BD234601220DF107016B20FFF75EFE74
:10510000F5E730B583B00446034601220DF10701EF
:105110004420FFF7D6FC054610B1284603B030BD49
:10512000237DC3F303138DF80730234601220DF1CD
:1051300007014420FFF742FE0546636A0A209847AC
:10514000EBE730B583B0B6238DF8073010B30546D2
:10515000436A13B3034601220DF107017E20FFF7D6
:105160002DFE04466B6A0120984714B9AB78012BD9
:1051700003D05CB1204603B030BD2B4601220DF1B7
:1051800007017F20FFF79DFC0446F2E72846FFF762
:10519000F4FBEFE74FF0FF34ECE74FF0FF34E9E7C3
:1051A00030B583B00446FFF7D3FB10B9A378012BC9
:1051B00004D008BB0023237003220EE02346012203
:1051C0000DF107017F20FFF77CFCF2E72346012267
:1051D00021460020FFF775FC2A46531EDDB212B1AE
:1051E0002378D82BF2D148B92378D82B09D1FF23C3
:1051F000E3702046FFF7A5FF03B030BD6FF002005B
:10520000FAE76FF00200F7E758B110B50446436AB9
:1052100053B1FFF79BFE00B110BD2046FFF7C5FE5E
:10522000FAE74FF0FF3070474FF0FF30F4E7A8B1D6
:1052300010B50446436AA3B1FFF708FE00B110BDE4
:105240002046FFF728FE0028F9D12046FFF7DCFFB3
:105250000028F4D12046FFF788FCF0E74FF0FF303C
:1052600070474FF0FF30EAE710B584461446C0F3AC
:1052700080000CF003021CF0040F00D00320CBB11F
:10528000022A0BD0032A0FD0012A02D06FF00400AB
:1052900010BD91B11A46FFF794FCF9E784B11A46A4
:1052A0002146FFF7CDFCF3E76CB179B12246FFF759
:1052B00029FDEDE74FF0FF30EAE74FF0FF30E7E779
:1052C0004FF0FF30E4E74FF0FF30E1E74FF0FF3001
:1052D000DEE7F0B585B00E460021ADF80E10CBB17B
:1052E000054617461C46DB69BBB1237D13F0010F51
:1052F00016D021460DF10E00FFF7C7FB08B105B02F
:10530000F0BD00943B4632462946BDF80E00FFF73B
:105310007AFEF4E74FF0FF30F1E74FF0FF30EEE7B1
:105320006FF00400EBE72DE9F04182B08DF8070043
:105330009BB30F4616461D461B6AA3B34FF00008E9
:10534000444603E008F101035FFA83F81FFA88F38B
:10535000B34224D22B46012239464F20FFF72EFDBF
:1053600004466B6A0A209847002CEBD12B46012299
:105370000DF107014E20FFF721FD04466B6A0A205C
:105380009847002CDED1731E9845DBDA01379DF873
:10539000073001338DF80730D4E74FF0FF34204653
:1053A00002B0BDE8F0814FF0FF34F8E730B583B0CC
:1053B0000446437D5B008DF8043000238DF80530F2
:1053C000034601220DF105014C20FFF77AFB05464B
:1053D00010B1284603B030BD9DF9053003F07F03BE
:1053E000217DC1F3400243EAC2135AB28DF8053061
:1053F00022F00303C1F381010B438DF805302346EE
:10540000022201A94B20FFF7D9FC0546636A0A2056
:105410009847DEE710B50446FFF747FE00B110BD20
:105420002046FFF7C3FFFAE710B50446FFF790FAEE
:1054300038B9237D13F0010F06D02046FFF7EAFFAD
:1054400010BD4FF0FF30FBE76FF00400F8E738B510
:1054500005460C460846FFF77BFAF8B9237D13F0A2
:10546000010F1ED02346012229464D20FFF7A6FC3E
:105470000546636A0A2098470DB1284638BD204684
:10548000FFF73FFE05460028F7D1237D6FF3410368
:1054900023752046FFF78AFF0546EEE74FF0FF35FC
:1054A000EBE76FF00405E8E738B505460C4608461B
:1054B000FFF74EFA58B9237D03F00303012B09D1FE
:1054C0002346082229460420FFF7FBFA38BD4FF097
:1054D000FF30FBE76FF00400F8E760B1C2686AB123
:1054E000026972B142697AB143680BB1002070471A
:1054F0004FF0FF3070474FF0FF3070474FF0FF30F4
:1055000070474FF0FF3070474FF0FF30704700009A
:1055100010F5805F48D011B9D18C002946D0002900
:1055200046D000B5D38C9B0393FBF1F39BB2A3F55C
:1055300080431BB203FB03FC92F925E06146BCF1FA
:10554000000F22DBC91192F824C00CFB03F3DB012E
:1055500001FB0E33002B1BDB5B1203F5801392F96A
:105560001A10A03101FB03F3002B14DB1B1300FB0B
:1055700003F3002B12DB43F34F3392F9180013EBC4
:10558000C0030FD418115DF804FB0CF17F01D9E7BB
:1055900003F2FF13E0E703F6FF73E7E703F5FF53BA
:1055A0001F33E8E70F33EDE70248704701487047C3
:1055B000004870470080FFFF10F5805F48D011B9A8
:1055C000D18C002946D0002946D000B5D38C9B034E
:1055D00093FBF1F39BB2A3F580431BB203FB03FCE7
:1055E00092F925E06146BCF1000F22DBC91192F867
:1055F00024C00CFB03F3DB0101FB0E33002B1BDB90
:105600005B1292F91B10A03103F5801301FB03F329
:10561000002B14DB1B1300FB03F3002B12DB43F303
:105620004F3392F9190013EBC0030FD418115DF832
:1056300004FB0CF17F01D9E703F2FF13E0E703F667
:10564000FF73E7E703F5FF531F33E8E70F33EDE799
:105650000248704701487047004870470080FFFFCC
:1056600010F5804F3FD030B4B2F91E40002C3DD031
:10567000958B002D3ED000293ED0D38C002B3DD001
:10568000CB1A1BB2B2F920C003FB0CF3002B1ADBC0
:105690004FEAA30CB2F92230C31ADB0309B205FBAF
:1056A00001F14A0012F500420FD4A3EB0C0304EB06
:1056B000224293FBF2F3B3F5004F0ADA13F5004FE1
:1056C00009DC0F4B07E00333E2E702F57F42FF32CC
:1056D000EBE747F6FF731846002B01DB001106E0ED
:1056E00003F10F00FAE7074800B27047054800B21F
:1056F00030BC70470348FAE70248F8E70148F6E78C
:105700000180FFFF0080FFFF2DE9F04107460D46B5
:1057100016461C461846FFF7E0FE60B980466DB19C
:105720007EB163683246294638462569A84720720B
:105730004046BDE8F0814FF0FF38F9E74FF0FF3801
:10574000F6E74FF0FF38F3E700B583B00B46C278B9
:105750008DF8072001220DF107015120FFF7D4FF3A
:1057600003B05DF804FB00B583B00B4602798DF8F9
:10577000072001220DF107015220FFF7C5FF03B0FA
:105780005DF804FB2DE9F04106460F4690461C46A5
:105790001846FFF7A2FE80B905468FB16378012B4A
:1057A00001D046F080066368424639463046E668D6
:1057B000B04720722846BDE8F0814FF0FF35F9E789
:1057C0004FF0FF35F6E730B583B005460C460023B1
:1057D0008DF807300B4601220DF107014B20FFF732
:1057E000D1FF08B103B030BD9DF8073023F00103AD
:1057F0005BB205F0010213438DF807302346012206
:105800000DF107014B20FFF77FFF0028EAD184F854
:105810002A50E7E738B50446FFF75FFE054610B9A2
:1058200094F82A300BB1284638BD21460120FFF7F5
:10583000CAFF05466369616840F6B8309847F2E7E9
:1058400010B586B004460022ADF8142004920192EF
:105850000292ADF80C200346022205A95D20FFF755
:1058600091FF08B106B010BD2346042204A96220AE
:10587000FFF788FF0028F5D123460A2201A96820F6
:10588000FFF780FF0028EDD19DF9143023769DF9B4
:10589000153063769DF91230A3769DF91330E376C7
:1058A0009DF807209DF8063043EA0223A3839DF864
:1058B00005209DF8043043EA0223E3839DF80B2082
:1058C0009DF80A3043EA022323849DF811209DF8B5
:1058D000103043EA022363849DF80D3084F82430AD
:1058E0009DF90C3084F825309DF809301B0203F433
:1058F000FE439DF808201343E384B3E710B582B05C
:10590000044600238DF8073001460120FFF75BFFB6
:1059100080B96369616840F6B83098472346012230
:105920000DF107014020FFF72DFF18B99DF8073052
:10593000322B01D002B010BD23702046FFF780FF4C
:10594000F8E730B583B004460D460B4601220DF151
:1059500007014C20FFF716FF08B103B030BD9DF8DA
:10596000070020F0060043B2600000F00600184374
:105970008DF807002B4601220DF107014C20FFF79F
:10598000C3FEEAE730B583B005460C460B4601225C
:105990000DF107014C20FFF7F5FE08B103B030BD53
:1059A0009DF8073023F038035BB2AA78D20002F0EA
:1059B000380213438DF80730234601220DF1070109
:1059C0004C20FFF7A1FEE9E738B504460D46FFF786
:1059D000D9FF00B138BD29462046FFF7B5FE0028A3
:1059E000F8D129462046FFF7BEFEF3E738B5054655
:1059F0000C460846FFF771FD30BB6D78042D24D8A6
:105A0000DFE805F0030C23151E002046FFF702FF18
:105A1000D0B921462846FFF794FF15E02046FFF74E
:105A2000F9FE88B921462846FFF78BFF0CE0204697
:105A3000FFF7F0FE40B921462846FFF782FF03E05A
:105A400021460020FFF7BFFE38BD6FF00200FBE7E4
:105A500038B504460D460846FFF73FFD80B9637927
:105A6000013B032B2ED8DFE803F0020C17220023A2
:105A7000A3700123E370237129462046FFF7A4FF9A
:105A800038BD0023A3700423E37007232371294644
:105A90002046FFF799FFF3E70523A3701723E37070
:105AA0002923237129462046FFF78EFFE8E70023CC
:105AB000A3700723E3700D23237129462046FFF7C7
:105AC00083FFDDE76FF00200DAE72DE9F04383B0F2
:105AD00004460E4615461046FFF7FFFC8146002897
:105AE0003FD1002C3DD02078C308237094F90100E9
:105AF00080B2400100B21843ADF8000094F8028073
:105B00004FEAD80884F8028094F903309BB25B0115
:105B10001BB248EA0308ADF8028027797F08277195
:105B200094F905309BB2DB011BB21F43ADF8047042
:105B3000A3799B08A371E47943EA8414ADF8064085
:105B40002A462146FFF7E4FC30802A46214640469B
:105B5000FFF732FD70802A4621463846FFF780FD68
:105B6000B080484603B0BDE8F083B0F1FF3F22D0DB
:105B700008B338B5C50E43011B1A65F10005AD0029
:105B800045EA93759B00181845F10005ED0045EABC
:105B90005075C4004FF47A7200232046294660F005
:105BA00091FA6FF47A73A34240F2E733AB4101D22A
:105BB0006FF0010038BD7047034B0360034B0B606F
:105BC00080231360704700BF083B000808350008B9
:105BD000034B0360034B0B604FF4807313607047FB
:105BE000043C00080837000830B583B005460023A0
:105BF00001931C4B1B68C3B11A4B1B689BB1FEF78A
:105C0000A0FE044607F0A8FD50B14FF47A7005FBE2
:105C100000F01549A1FB00318D09B0F57A7F0ED255
:105C20002046FEF792FE03B030BD10483EF0B6FFAE
:105C300018B90C4B0D4A1A60DEE701BEDCE7012300
:105C400001AA29460748006843F006F90028E7D171
:105C5000019BAB4200D901BE0198FFF786FF07F018
:105C6000FFF9DDE7F0340008D34D6210F43400088A
:105C700008B508F0F3FA03680BB14068984708BD0F
:105C80002DE9F04784B00C9D002843D00F46904684
:105C90001C468146B5F5967F3ED313B113F0070F2E
:105CA0003ED184B3002606F5847006F071FA824670
:105CB000002837D025F00705AD083CB35644032231
:105CC0000021012006F056FDC6F8FC0000B3184B79
:105CD000C6F80031C6F804A116F0070F00D001BEC7
:105CE000029601949DF8343000930E9B2A4641465B
:105CF000384607F057FEC9F80000864214D0A8B114
:105D000001BE002009E025F00706CCE70446D5E7F0
:105D100001BEDCE7074800E0064804B0BDE8F087B4
:105D20000548FAE70548F8E70020F6E70020F4E721
:105D300001EFCDAB05000E0606000E0601000E06B3
:105D400010B507F02DFD0446D0F80021074B9A420C
:105D500004D001BE204607F071FBFBE700231A4682
:105D60001946D0F8FC0006F063FDF3E701EFCDAB78
:105D7000E0B110B50446006807F056FE246807F04D
:105D8000B3FED4F800210A4B9A4203D007F00EFA72
:105D9000002010BD0023C4F80031D4F8FC0006F048
:105DA000C5FFD4F8040106F003FAEFE70148704795
:105DB00001EFCDAB05000E06A8B110B5044603688F
:105DC000D3F80011094A914203D000200023236038
:105DD00010BD4FF0FF31D3F8FC0006F026FE204640
:105DE000FFF7C6FFF2E70248704700BF01EFCDABF7
:105DF00005000E0680B110B50446017131B10420D2
:105E000006F0E7FD206028B1002010BD012006F05B
:105E1000E0FDF7E70148F8E70148704701000E068A
:105E200005000E0698B110B504460846FFF79DFE22
:105E3000014623792BB1206806F0C8FE28B1002066
:105E400010BD206806F0F1FDF8E70248F8E70248C7
:105E5000704700BF00000E0605000E0688B108B5A9
:105E600003792BB1006806F0BFFD40B1002008BDEA
:105E700000231A461946006806F0DAFCF5E70248E6
:105E8000F5E70248704700BF02000E0605000E0647
:105E900028B108B5006806F049FF002008BD014898
:105EA000704700BF05000E0660B110B50B461146E5
:105EB0000446184606F09CFC206008B1002010BD86
:105EC0000148FCE70148704701000E0605000E0678
:105ED00030B583B000230193E0B10546EFF30583AD
:105EE00003B1C9B90846FFF740FE0146EFF3058448
:105EF0004CB101AA0021286806F089FE70B1002487
:105F0000204603B030BD286806F08FFD0028F7D189
:105F1000034CF5E7034CF3E7024CF1E7004CEFE7E5
:105F200000000E0605000E0600B583B000230193A5
:105F300000B3EFF3058383B101A9006806F063FAAB
:105F4000019B83B14FF0E0234FF08052C3F8042D42
:105F5000BFF34F8FBFF36F8F05E000231A4619463A
:105F6000006806F065FC18B1002003B05DF804FB82
:105F70000148FAE70148F8E702000E0605000E06A0
:105F800028B108B5006806F0D1FE002008BD014820
:105F9000704700BF05000E0668B110B50B461146EC
:105FA00004460022184606F0E5FB206008B10020F8
:105FB00010BD0248FCE70248704700BF01000E0612
:105FC00005000E06D0B138B50C460546C1B1EFF359
:105FD00005833BB100231A46006806F09DF958B1CD
:105FE000002038BD1046FFF7C0FD024600232146C1
:105FF000286806F01DFCF2E70248F2E70248704705
:106000000148EEE702000E0605000E06C0B138B5E5
:106010000C460546B1B1EFF3058333B100220068A9
:1060200006F0F5FD50B1002038BD1046FFF79DFD8C
:1060300002462146286806F04DFAF3E70248F3E7E6
:10604000024870470148EFE702000E0605000E0601
:1060500028B108B5006806F069FE002008BD0148B7
:10606000704700BF05000E0628B32DE9F04182B04D
:106070000F4614461D468046FAB1082060F0B2FD76
:106080000646E0B10460456077B901220D4B0093EC
:10609000334601210C4807F019FFC8F8000028B169
:1060A000002002B0BDE8F0810022EFE7304660F04A
:1060B000A1FD0648F5E7064870470548F1E70348A3
:1060C000EFE700BF715C00108455071001000E0659
:1060D00005000E06F8B110B582B004460846FFF779
:1060E00044FD0246002300930421206807F00AFFC4
:1060F000012803D068B1002002B010BD246807F069
:10610000FBFC0246002300930121204607F0FAFE23
:10611000F0E70248F0E70248704700BF02000E06B1
:1061200005000E0678B100B583B000220092134638
:106130000321006807F0E6FE18B1002003B05DF807
:1061400004FB0248FAE70248704700BF02000E064F
:1061500005000E0658B110B50C4651B1006808F0A4
:1061600062F8003818BF01202070002010BD0248DE
:1061700070470148FAE700BF05000E06B0B130B520
:1061800083B00546006808F069F8044600220092D2
:1061900013460521286807F0B5FE10B9044803B07E
:1061A00030BD204660F026FD0020F8E7014870472A
:1061B00002000E0605000E0630B110B5044607F0C9
:1061C0009BFC2060002010BD0048704705000E06B3
:1061D00008B5FFF7CAFC07F065F8002008BD10B548
:1061E00082B004464FF0FF3269462046FFF70EFFAB
:1061F0000028F7D1009B13B101989847F2E7FFF709
:106200009FFD02B010BD000070B584B004460E467C
:1062100001B100B901BEB36813B1736803B901BE1F
:10622000002323606360A360E360316901B910213A
:1062300008222046FFF7B0FE054680B901232373EC
:1062400004F10800F2686AB102943378019373682C
:106250000093B3680749FFF713FD054620B92846A8
:1062600004B070BD044AEFE7002323732046FFF714
:10627000EFFEF4E7DF61001074E9061070B582B03C
:106280000446FEF75EFB0546237BCBB3012B13D000
:106290000026237B042B24D1237B93B32846FEF7CF
:1062A00054FB2046FFF7D4FE064668BBFEF749FBC9
:1062B00005460023237324E003232373FEF745FBE5
:1062C00000220092019269462046FFF77BFE0646B7
:1062D0000028DED0FEF735FB01232373FEF735FBE4
:1062E00012E02846FEF731FB04F10800FFF764FDD9
:1062F000064648B9FEF725FB054604232373CBE782
:1063000000262846FEF721FB304602B070BD000093
:1063100070B582B00D461646044618B325B3FEF795
:1063200010FB237B013BDBB2012B1FD863680133D9
:10633000636002232373FEF708FB00950196002299
:1063400069462046FFF73EFE0546FEF7FAFA636807
:10635000013B63600BB901232373FEF7F6FA28466D
:1063600002B070BD01BED9E701BED8E7FEF7EDFA75
:10637000004DF4E720000E06401A7047023803284B
:1063800003D8DFE800F00A04060800207047502018
:10639000704762207047702070474020704748B1B6
:1063A00051B10B7803B14AB10B694BB1CB684BB11A
:1063B000002070470120704701207047012070477E
:1063C00000207047012070472DE9F04768B10F4663
:1063D00015460646836E7BB1426DA2B1D1B1984796
:1063E00080464FF00009CA462FE0264B264A40F26D
:1063F0005E21264860F044F8254B234A40F25F2195
:10640000224860F03DF8234B1F4A4FF418711F4893
:1064100060F036F8204B1C4A40F261211B4860F0C6
:106420002FF81E4B184A40F27E21184860F028F8D9
:10643000B36E98474146FFF79FFF092805D94FF0F3
:10644000010902E04FF00109A2469DB1B9F1000F28
:1064500010D1736D2A463946B06D9847041EF1DBA2
:10646000E6DDB36E98478046AC42DAD82D1BA244D5
:106470002744EAE7BAF1000F01DDC6F87080504604
:10648000BDE8F08780E9061088EC061094E9061054
:10649000FCE9061018EA061044EA061054EA061051
:1064A0002DE9F04F83B0A8B10D468046036E8B42B4
:1064B00017D3D0F868B0BBF1000F19D0D0F850A0B6
:1064C000BAF1000F1BD0C66D06B3D8470190002764
:1064D000B94633E0244B254A40F2D62124485FF0E8
:1064E000CFFF244B214A40F2D72121485FF0C8FF5B
